:03000000020EB13C
:0C0EB100787FE4F6D8FD758155020EF83C
:10134E001213871213621213751213A7120E2212A2
:04135E000B5C80FBA9
:1013620075C83475CBFF75CAB275CDFF75CCB27531
:031372009850226E
:061286008B0A8A0B890CA3
:10128C00E4FFFEAB0AAA0BA90C8F828E83120C789A
:10129C00600EF5993099FDC2990FBF00010E80E3E5
:0112AC00221F
:04131800AD07AC066B
:10131C00E4FBFAECC313FEED13FFC3EB9FEA9E5004
:08132C00070BBB00010A80EB76
:011334002296
:1012F800E4FDFCC3ED9FEC9E5015E4FBFA0BBB002C
:0F130800010AEB64784A70F50DBD00010C80E41A
:0113170022B3
:1011F200014800014900014A00014B00024E000073
:10120200025000000252000002540000024C000092
:0713C700E54D6401454C22D5
:101375005389F0438902758C9C758A9C43A882D257
:021385008C22B8
:101242008D0AEF14601714602114602B240370338D
:10125200AF0A1213358E4E8F4F75480122AF0A1214
:1012620013358E508F5175490122AF0A1213358EF4
:10127200528F53754A0122AF0A1213358E548F557D
:04128200754B012285
:03000B00020F3DA4
:100F3D00C0E0C0D0C28D054DE54D7002054CE548B1
:100F4D00B401151213C77004D290800CE54DB54F46
:100F5D0007E54CB54E02C290E549B401151213C711
:100F6D007004D291800CE54DB55107E54CB550029A
:100F7D00C291E54AB401151213C77004D292800CC8
:100F8D00E54DB55307E54CB55202C292E54BB401A0
:100F9D00151213C77004D293800CE54DB55507E5B6
:100FAD004CB55402C293E54D64C8454C7004F54CE4
:070FBD00F54DD0D0D0E03269
:101335007E007C007D7D120CA5E42FEE3402131394
:09134500543F2404FFE433FE22AE
:0E13A70053890F438990E4F58DF58BD28E2289
:1012D400E4F58DF58BD2B47F0AFE121318C2B43034
:1012E400B3FD20B3FDAF8DEFFEAD8BEDFF7C007D34
:0412F4003A020CB7F7
:0A13B50001C2015E011800DC00A077
:0F1398007C007D05120CB7C3E50F9FE50E9E226A
:10138700C2A3C2A2C2A1C2A0C297C296C295C2946A
:011397002233
:0410B2008E088F090C
:1010B600E4F50AF50BF50CF50DF50AF50BC3E50B92
:1010C6009509E50A95085049AD0BAC0AAF09AE087B
:1010D60012103C8E0C8F0DD2A3D297121318C2A3F6
:1010E600C297D2A2D29612111AC2A2C296D2A1D287
:1010F6009512111AC2A1C295D2A0D294AF0DAE0C10
:10110600121318C2A0C294050BE50B70B0050A8035
:04111600AC0213878D
:08111A00AF0DAE0C12131822F8
:100FC400750801750990E4F50AF50BF50CF50DF5B6
:100FD4000CF50DC3E50D9509E5086480F8E50C648E
:100FE40080985049AD0DAC0CAF09AE0812103C8E80
:100FF4000A8F0BD2A3D294121318C2A3C294D2A202
:10100400D295121034C2A2C295D2A1D29612103433
:10101400C2A1C296D2A0D297AF0BAE0A121318C2C5
:10102400A0C297050DE50D70AA050C80A6021387D2
:08103400AF0BAE0A12131822E3
:10112200750801750990E4F50AF50BF50CF50DF556
:101132000CF50DC3E50D9509E5086480F8E50C642E
:1011420080985039AD0DAC0CAF09AE0812103C8E30
:101152000A8F0BD2A3121318C2A3D2A2121182C2F7
:10116200A2D2A1121182C2A1D2A0AF0BAE0A121357
:1011720018C2A0050DE50D70BA050C80B6021387E2
:08118200AF0BAE0A1213182294
:10118A00E4F508F509750A01750B90F50CF50DF5EE
:10119A000CF50DC3E50D950BE50A6480F8E50C64C2
:1011AA0080985039AD0DAC0CAF0BAE0A12103C8EC4
:1011BA00088F09D297121318C297D2961211EAC24F
:1011CA0096D2951211EAC295D294AF09AE081213BB
:1011DA0018C294050DE50D70BA050C80B602138786
:0811EA00AF09AE081213182230
:04103C008C0E8D0F7A
:101040007C007D0A120CB7AB07AA06C3EB9405EA35
:10105000940050047A007B057C007D05AF03AE024E
:1010600012139C50059013B58040EB25E0FFEA3346
:10107000FE12139850059013B7802F7C007D03AFAC
:1010800003AE02120CA512139A50059013B9801AE0
:10109000AE02EB7802C333CE33CED8F9FF121398E9
:1010A00050059013BB80039013BDE493FE7401932D
:0110B000FF40
:0110B100221C
:100D6D004D617A652D536F6C76696E6720526F6297
:100D7D006F740A0053544C5020456C656374726F48
:100D8D006E6963610A004C4546540A005249474852
:100D9D00540A0046524F4E540A0044697374616EF2
:100DAD006365204C4546543A20256420636D0A0046
:100DBD0044697374616E63652046524F4E543A20F8
:100DCD00256420636D0A0044697374616E63652048
:100DDD0052494748543A20256420636D0A004C65FA
:100DED0066740A0A00476F20466F72776172640A53
:100DFD0000476F20466F72776172640A0A0052696C
:100E0D006768740A0A003138302064656772656559
:050E1D00730A0A000F3A
:10121200022600000224000002220000202028767C
:10122200616C6F720000000000000000000000000E
:0F123200000000000000000000000000000000AD
:0813BF00900E21E493FFC3220C
:100E2200E4F508F509C2A4C2A57BFF7A0D796D121B
:100E320012867BFF7A0D79811212867DAAE4FF1257
:100E420012427A0D7993120EA4D2A4D2A57D0FE498
:100E5200FF1212427A0D7999120EA4C2A4C2A57D84
:100E62005FE4FF1212427BFF7A0D79A01212867F95
:100E7200F47E011212F8D2A4C2A5E4F508F509B273
:100E8200A4B2A57F647E001212F80509E50970027A
:100E92000508C39414E5086480948040E2C2A4C2A9
:010EA200A5AA
:0E0EA300227BFF1212867FF47E011212F822CB
:100B5C00D2A57DAA120C5C8E268F27750BFF750C07
:100B6C000D750DA785260E85270F120C3E7D5F1285
:100B7C000C5C8E248F25750BFF750C0D750DBD85CA
:100B8C00240E85250F120C3E7D0FE4FF1212427FBE
:100B9C00647E001212F81212D48E228F23750BFF72
:100BAC00750C0D750DD485220E85230F7B007A00F4
:100BBC00792812085C7B007A007928121286120CB4
:100BCC006C7D5FE4FF121242120C6CC2A51213BFB3
:100BDC00E5279F7480F8652698400E7BFF7A0D7987
:100BEC00EB1212861213D5803C1213BFE5259F74AD
:100BFC0080F865249840087BFF7A0D79FE802C12D2
:100C0C0013BFE5239F7480F86522987BFF400C7A14
:100C1C000E790B1212861213D8800A7A0E791312DF
:100C2C0012861213DB7BFF7A0D79F21212861213E5
:100C3C00CE227B007A00792812085C7B007A00793E
:100C4C0028121286B2A4B2A57FF47E011212F822E9
:100C5C00E4FF1212427F647E001212F81212D422A8
:0C0C6C00B2A4B2A57FF47E011212F8229F
:0713CE007F817E010210B2D5
:0313D50002118A78
:0313D800021122DD
:0313DB00020FC43A
:100EBD0002134EE493A3F8E493A34003F68001F2EA
:100ECD0008DFF48029E493A3F85407240CC8C33336
:100EDD00C4540F4420C8834004F456800146F6DF05
:100EED00E4800B01020408102040809011F2E47E92
:100EFD00019360BCA3FF543F30E509541FFEE493FA
:100F0D00A360010ECF54C025E060A840B8E493A3C0
:100F1D00FAE493A3F8E493A3C8C582C8CAC583CAEB
:100F2D00F0A3C8C582C8CAC583CADFE9DEE780BEA3
:0112410000AC
:100C7800BB010CE58229F582E5833AF583E0225031
:100C880006E92582F8E622BBFE06E92582F8E2227B
:0D0C9800E58229F582E5833AF583E4932295
:100CA500EF8DF0A4A8F0CF8CF0A428CE8DF0A42E63
:020CB500FE221D
:100CB700BC000BBE0029EF8DF084FFADF022E4CC21
:100CC700F875F008EF2FFFEE33FEEC33FCEE9DECEA
:100CD700984005FCEE9DFE0FD5F0E9E4CEFD22ED30
:100CE700F8F5F0EE8420D21CFEADF075F008EF2F7A
:100CF700FFED33FD4007985006D5F0F222C398FD6B
:050D07000FD5F0EA2207
:10080000E517240BF8E60517227808300702780B65
:10081000E475F001120D37020D0C2000EB7F2ED293
:10082000008018EF540F2490D43440D4FF30040BD0
:10083000EF24BFB41A0050032461FFE518600215CD
:1008400018051BE51B7002051A30070D7808E475C2
:10085000F001120D37EF020D250212AD7403D2071D
:100860008003E4C207F5178B088A09890AE4F518A2
:10087000F51AF51BE51860077F2012083B80F57517
:1008800019FFC201C200C202C203C205C206C208E9
:10089000120809FF700D3007057F0012084CAF1BCE
:1008A000AE1A22B4255FC2D5C204120809FF24D0B3
:1008B000B40A00501A75F00A781830D50508B6FF4A
:1008C0000106C6A426F620D5047002D20380D924DE
:1008D000CFB41A00EF5004C2E5D204020A4CD20190
:1008E00080C6D20080C0D20280BCD2D580BAD205E8
:1008F00080B47F2012083B2002077401B518004025
:10090000F1120800FF12083B020874D208D20680D8
:1009100095120800FB120800FA120800F94A4B7001
:1009200006791D7A0B7BFF20022EE518602A7E00D7
:100930008E82758300120C7860060EEE651970F0D9
:10094000C2D5EBC0E0EAC0E0E9C0E0EE120A93D005
:10095000E0F9D0E0FAD0E0FB120D0CFF60AAEBC08A
:10096000E0EAC0E0E9C0E012083BD0E02401F9D0A1
:10097000E03400FAD0E0FBE5190460DCD519D98039
:10098000877BFF7A0A798FD202809C791080027966
:1009900008C206C2088008D2D5790A8004790AC242
:1009A000D5E519047002F519E4FAFDFEFF120800FE
:1009B000FC7B08200113120800FD7B1030000A1296
:1009C0000800FE120800FF7B20EC3382D592D55040
:1009D00013C3E43000069FFFE49EFEE42001039D64
:1009E000FDE49CFCE4CBF8C201EC700CCFCECDCC86
:1009F000E824F8F870F38017C3EF33FFEE33FEED11
:100A000033FDEC33FCEB33FB994002FB0FD8E9EBF1
:100A1000300105F8D0E0C448B201C0E00AEC4D4E08
:100A20004F78207B0070C2EAB5190040BCC0E012CC
:100A30000A95D0F0D0E0200104C4C0E0C4B201C0E7
:100A4000F0120824D0F0D5F0EB020874120D47091B
:100A50001153098B5808E24C08DE42098F4F099761
:0F0A60004409974908F743099D550981460981C3
:100A6F00450981470B3D5008E62D08EA2E090D2B4D
:100A7F0008EE23090B200B262A08A64800000905BB
:100A8F003F3F3F00790AA2D5200314300509B91062
:100A9F00020404B9080104A2D52006025001042063
:100AAF0002689202B518005034C0E07F203003195D
:100ABF007F30A20272067205500F120AECC202C2F8
:100ACF0006C205C2087F30800F300503E9C0E0126F
:100ADF00083B300503D0E0F9D0E0B518CC3005174E
:100AEF007F30B9100C12083B7F583004077F788095
:100AFF0003B9080312083B3002057F2D02083B7F24
:100B0F00202008F87F2B2006F322920280CF286E38
:100B1F00756C6C2900D2011208003001F8C20178FF
:100B2F001830D50108F60208A62D5043495812086F
:100B3F00002403B405004001E4900B389312082CF5
:0D0B4F00743A12082CD20375180402098BA9
:100D0C00BB010689828A83E0225002E722BBFE02E5
:090D1C00E32289828A83E4932218
:100D2500BB010689828A83F0225002F722BBFE01AD
:020D3500F322A7
:100D3700FAE6FB0808E6F925F0F618E6CA3AF622BD
:100D4700D083D082F8E4937012740193700DA3A33B
:100D570093F8740193F5828883E47374029368604F
:060D6700EFA3A3A380DF4F
:1012AD00EFB40A07740D1212B8740A309811A89988
:1012BD00B8130CC2983098FDA899C298B811F630A1
:0712CD0099FDC299F5992279
:00000001FF
